S01600004D6F746F724D6F76656D656E74732E737265633F
S113000039C0000053C0000051C000004FC00000C0
S11300104DC000004BC0000049C0000047C00000B4
S113002045C0000043C0000041C000003FC00000C4
S11300303DC000003BC0000050C1000037C00000BC
S113004035C0000033C0000031C000002FC00000E4
S11300502DC000002BC0000029C0000027C00000F4
S113006025C0000023C000006364696E6F7073755F
S113007078585B0011241FBECFEFD8E0DEBFCDBFA0
S113008011E0A0E0B1E0EEE6F4E102C005900D92CB
S1130090A236B107D9F721E0A2E6B1E001C01D9272
S11300A0A338B207E1F71DD00C94350AA9CFFC019F
S11300B049961192E817F907E1F708950CC080E01A
S11300C091E064D22FEF89EF90E02150804090407E
S11300D0E1F700C0000080E091E0B6D1882379F315
S11300E0089525D3F2D02FEF81EE94E02150804083
S11300F09040E1F700C000007894B6D20F2EF4E6E9
S1130100EF2EF1E0FF2EF02DC7E1D1E00F2EF0E04D
S1130110CF2EF1E0DF2EF02D0F2EF2E42F2EF1E0A2
S11301203F2EF02D0F2EFDE24F2EF1E05F2EF02D2D
S11301300F2EFAE16F2EF1E07F2EF02DC701B7DF0D
S11301400F2EF4E6AF2EF1E0BF2EF02D912CBF92CE
S1130150AF92DF93CF93EAD30F900F900F900F904D
S1130160019711F0FDD2EACF91102FC0F7018081E1
S1130170823539F47F926F92C6D376D20F900F9066
S1130180DDCF8734F1F44FD1982E892E3BD1B82E90
S1130190A92E27D1182F092F13D18F929F92AF9296
S11301A0BF920F931F939F938F935F924F92ABD302
S11301B08DB79EB70A960FB6F8949EBF0FBE8DBF3B
S11301C0BDCF8B3509F46AC0B9CFF5018081FFEF4B
S11301D0AF1ABF0A8B3541F08D3531F08B3321F0E6
S11301E080538A3008F0AACF939422E19212AFCFC1
S11301F04AC0F70180818B3509F0A0CF84818B330D
S113020009F09CCF80858B3309F098CF84858B339C
S113021009F094CF80898B3309F090CF81898D3593
S113022009F08CCF83E091E09F938F9382E091E07B
S11302309F938F9381E091E09F938F93DF92CF926E
S11302403F922F92FF92EF9284D38DB79EB70C9674
S11302500FB6F8949EBF0FBE8DBFF6018081853B1B
S113026008F06CCF81818D52843708F067CF82818A
S11302708D52843708F062CF83818D52883808F01C
S11302805DCF1CDF5BCFF70101900020E9F7E75752
S1130290F14009F053CFADCF939459CFF50180814C
S11302A0FFEFAF1ABF0A8B3509F096CFF5CF84B5AF
S11302B0826084BD85B5826085BD83E187BDEEE63D
S11302C0F0E08081826080830895239A229A219AA3
S11302D0569A559AECDF789408951F920F920FB6B0
S11302E00F9211242F933F934F938F939F93809159
S11302F06201909163019C012F5F3F4F3093630132
S113030020936201813D974048F02B982A982998C0
S11303105E985D981092630110926201809162016F
S113032090916301873D964008F440C040910501D7
S113033020916201309163018EE997E0841B910959
S11303408217930708F42B9A4091060120916201C9
S1130350309163018EE997E0841B9109821793071A
S113036008F42A9A409107012091620130916301B7
S11303708EE997E0841B91098217930708F4299A60
S11303804091080120916201309163018EE997E068
S1130390841B91098217930708F45E9A8091620185
S11303A0909163018633974008F05D9A9F918F91F5
S11303B04F913F912F910F900FBE0F901F90189562
S11303C08091050190E09C01220F331F220F331FFF
S11303D0220F331F820F931F6AE070E0CED1CB014E
S11303E008958091060190E09C01220F331F220F93
S11303F0331F220F331F820F931F6AE070E0BDD1B9
S1130400CB0108958091070190E09C01220F331FD6
S1130410220F331F220F331F820F931F6AE070E0F5
S1130420ACD1CB0108958091080190E09C01220F8A
S1130430331F220F331F220F331F820F931F6AE0D3
S113044070E09BD1CB0108952F923F924F925F921F
S11304506F927F928F929F92AF92BF92CF92DF92D0
S1130460EF92FF920F931F93CF93DF93EC01409091
S11304700501512C612C712C888190E0A0E0B0E042
S1130480880F991FAA1FBB1FAC01BD01440F551F44
S1130490661F771F440F551F661F771F8C019D0130
S11304A0040F151F261F371FC901B80129E33EE8B1
S11304B043EE58E375D100E29CD1822E932EA42EF4
S11304C0B52EB694A79497948794481459046A0453
S11304D07B0409F045C05E011FEFA11AB10AC1E017
S11304E0D0E0FE01EB5FFE4FC080F50181915F011A
S11304F0D12CE12CF12C90E0A0E0B0E0880F991F02
S1130500AA1FBB1FAC01BD01440F551F661F771FF7
S1130510440F551F661F771F8C019D01040F151F83
S1130520261F371FC901B80129E33EE843EE58E30B
S113053037D100E25ED1222E332E442E552ED20125
S1130540C101B695A79597958795C816D906EA0669
S1130550FB0641F42196C430D10519F681E003C0AD
S113056080E001C080E0DF91CF911F910F91FF9057
S1130570EF90DF90CF90BF90AF909F908F907F903F
S11305806F905F904F903F902F9008954F925F929D
S11305906F928F929F92AF92BF92CF92DF92EF921F
S11305A0FF920F931F93CF93DF932C01C0E0D0E011
S11305B0F20181912F0190E0A0E0B0E0880F991F33
S11305C0AA1FBB1FAC01BD01440F551F661F771F37
S11305D0440F551F661F771F8C019D01040F151FC3
S11305E0261F371FC901B80129E33EE843EE58E34B
S11305F0D7D000E2FED0822E932EA42EB52ED501A4
S1130600C401B695A79597958795682EFE01EB5F73
S1130610FE4F2081621638F4FE01EB5FFE4F8081AD
S1130620815080830CC0FE01EB5FFE4F20812615B4
S113063030F4FE01EB5FFE4F80818F5F8083219653
S1130640C430D10509F0B4CFDF91CF911F910F9140
S1130650FF90EF90DF90CF90BF90AF909F908F90DE
S11306606F905F904F900895CF93DF9300D000D0A8
S1130670CDB7DEB78AE5898387E88A8386E98B83E9
S11306808BE98C830CC0CE01019680DF2FEF89EFBC
S113069090E0215080409040E1F700C00000CE017E
S11306A00196D2DE882379F30F900F900F900F906C
S11306B0DF91CF9108959091C00095FD06C0E0ECC4
S11306C0F0E00000908195FFFCCF8093C60080E0AD
S11306D090E00895CF93E0ECF0E080818823ECF77C
S11306E08091C00084FF05C08091C60080E090E046
S11306F01CC08091C00083FF05C08091C60080E0CB
S113070090E013C08091C00082FF05C08091C600B4
S113071080E090E00AC0C091C60060917F017091B2
S113072080018C2FC8DF8C2F90E0CF910895E0ECEE
S1130730F0E080818D7F80831092C50089E18093F1
S1130740C40086E88093C20088E18093C100EDE78D
S1130750F1E089E091E0938382839183808308951B
S1130760CF93DF93CDE7D1E08881998189D08881C7
S113077099818BD0DF91CF91089597FB072E16F4C2
S1130780009406D077FD08D050D007FC05D03EF485
S1130790909581959F4F0895709561957F4F089529
S11307A0E894DF93CF93FC01DB0153D07F936F93E5
S11307B0E9019A01AC01BF93AF933F932F93DF01FB
S11307C048D026F46C1B7D0B820B930B9E01EB012E
S11307D0FC014ED0AF91BF912F913F9149D0BE0102
S11307E0CF01F9012F913F91CF91DF91089597FBAC
S11307F010F8169400080F93083098F00850232F2F
S1130800342F452F562F672F782F892F902DF4CF13
S11308100594979587957795679557954795379557
S113082027950A95AAF70F910895AA1BBB1B51E1BE
S113083007C0AA1FBB1FA617B70710F0A61BB70B4C
S1130840881F991F5A95A9F780959095BC01CD01F1
S11308500895A29FB001B39FC001A39F700D811D95
S11308601124911DB29F700D811D1124911D0895B5
S1130870F0DF460F571FC81FD91F08F4319608959B
S1130880FC0193819F7C93830895CF93DF93EC01C4
S11308902B8120FF33C026FF0AC02F7B2B838E8140
S11308A09F8101969F838E838A8190E029C022FFD5
S11308B00FC0E881F9818081082E000C990B009704
S11308C019F420622B831AC03196F983E8830EC091
S11308D0EA85FB85099597FF09C02B81019611F0E4
S11308E080E201C080E1822B8B8308C02E813F818E
S11308F02F5F3F4F3F832E83992702C08FEF9FEFD7
S1130900DF91CF910895A0E0B0E0E8E8F4E086C577
S1130910AE014B5F5F4FFA0161917191AF0180911C
S11309207F01909180012BD0E2E094C5A0E0B0E07B
S1130930EBE9F4E073C5AE014B5F5F4FFA016191DF
S11309407191AF0180917D0190917E0177D3E2E0B6
S113095081C5AEE0B0E0EEEAF4E060C585E08C83EA
S11309608B899C899A838983AE01495E5F4F6D8927
S11309707E89CE01019662D32E96E2E06BC5ABE090
S1130980B0E0E4ECF4E03AC56C017B018A01FC01BF
S113099017821682838181FFBFC1CE0101963C017B
S11309A0F6019381F70193FD859193FF81917F0176
S11309B0882309F4ADC1853239F493FD859193FF01
S11309C081917F01853221F4B60190E061D4E8CFB2
S11309D0912C212C312CFFE1F315D8F08B3279F0D6
S11309E038F4803279F08332A1F4232D20611DC0C4
S11309F08D3261F0803369F4232D216016C0832D7C
S1130A008260382EE32DE4603E2E2AC0F32DF86078
S1130A101DC037FC2DC020ED280F2A3040F08E3247
S1130A20B9F436FC75C1232D2064322E19C036FE6C
S1130A3006C08AE0989E200D1124922E11C0EAE08F
S1130A402E9E200D1124222EF32DF0623F2E08C07D
S1130A508C3621F4832D8068382E02C0883641F408
S1130A60F70193FD859193FF81917F018111B3CFAC
S1130A70982F9F7D9554933028F40C5F1F4F9FE36C
S1130A8099830DC0833631F0833771F0833509F0D3
S1130A9055C020C0F801808189830E5F1F4F8824D0
S1130AA08394912C530112C02801F2E04F0E511C83
S1130AB0F801A080B18036FE03C0692D70E002C049
S1130AC06FEF7FEFC501D9D34C018201F32DFF777E
S1130AD03F2E15C0280122E0420E511CF801A080CF
S1130AE0B18036FE03C0692D70E002C06FEF7FEF66
S1130AF0C501B8D34C01F32DF0683F2E820133FCBD
S1130B0019C0822D90E088169906A0F4B60180E2FF
S1130B1090E0BED32A94F5CFF50137FC859137FEDA
S1130B2081915F01B60190E0B3D321102A9421E0B2
S1130B30821A91088114910479F7E1C0843611F086
S1130B40893639F5F80137FE07C0608171818281E9
S1130B5093810C5F1F4F08C060817181072E000CC8
S1130B60880B990B0E5F1F4FF32DFF763F2E97FFD7
S1130B7009C090958095709561957F4F8F4F9F4FD9
S1130B80F0683F2E2AE030E0A301D7D3882E8618E0
S1130B9044C0853731F4232D2F7EB22E2AE030E075
S1130BA025C0932D997FB92E8F36C1F018F488355E
S1130BB079F0AEC0803719F0883721F0A9C0E92F49
S1130BC0E061BE2EB4FE0DC0FB2DF460BF2E09C043
S1130BD034FE0AC0292F2660B22E06C028E030E079
S1130BE005C020E130E002C020E132E0F801B7FEA8
S1130BF007C060817181828193810C5F1F4F06C0A1
S1130C006081718180E090E00E5F1F4FA30195D356
S1130C10882E8618FB2DFF773F2E36FE0DC0232D20
S1130C202E7FA22E891458F434FE0BC032FC09C066
S1130C30832D8E7EA82E05C0B82CA32C03C0B82CFF
S1130C4001C0B92CA4FE0FC0FE01E80DF11D808186
S1130C50803321F49A2D997EA92E09C0A2FE06C0E4
S1130C60B394B39404C08A2D867809F0B394A3FC9A
S1130C7010C0A0FE06C0B21480F4280C922C9B185D
S1130C800DC0B21458F4B60180E290E001D3B394DD
S1130C90F8CFB21418F42B1802C0982C212CA4FEFF
S1130CA00FC0B60180E390E0F3D2A2FE16C0A1FC0F
S1130CB003C088E790E002C088E590E0B6010CC06C
S1130CC08A2D867851F0A1FE02C08BE201C080E239
S1130CD0A7FC8DE2B60190E0DBD2891430F4B601B2
S1130CE080E390E0D5D29A94F8CF8A94F301E80D8A
S1130CF0F11D8081B60190E0CBD28110F6CF222085
S1130D0009F44ECEB60180E290E0C2D22A94F7CF25
S1130D10F6018681978102C08FEF9FEF2B96E2E167
S1130D2089C320FD09C0FC0123FD05C022FF02C0C8
S1130D307383628351834083089544FD17C046FD45
S1130D4017C0AB01BC01DA01FB01AA0FBB1FEE1FE8
S1130D50FF1F1094D1F74A0F5B1F6E1F7F1FCB013B
S1130D60BA01660F771F881F991F09C033E001C0BD
S1130D7034E0660F771F881F991F3150D1F7620F37
S1130D80711D811D911D08950F931F93CF93DF93C0
S1130D908C01C8017ADDEC0197FD06C050D2892B85
S1130DA0C1F7B801CE01B0D2CE01DF91CF911F912E
S1130DB00F9108958F929F92AF92BF92EF92FF92FC
S1130DC00F931F93CF93DF938C01D62F7A01B22E0A
S1130DD05CDD9C0133272B32310531F02D32310596
S1130DE059F48B2D8068B82ED15011F480E061C085
S1130DF0C8014BDD97FDFACFCB2DCD7F2B2D207372
S1130E00F9F48033E9F4AA24AA94AD0E09F43EC09F
S1130E10C8013BDD97FD3AC09C012F7D332728355F
S1130E20310541F4C264D25089F1C8012EDD97FF27
S1130E3007C02CC0B6FE02C0C26001C0C261DA2D78
S1130E40812C912C540120ED280F283078F0C4FF18
S1130E5003C0B80159D217C02A3040F0C6FFF9CFF9
S1130E602F7D3FEE320F3630A0F727504C2FC501AF
S1130E70B40163DF4B015C01C260D15051F0C80181
S1130E8004DD97FFE0CFC1FD04C0B0CF812C912CCD
S1130E905401C7FF08C0B094A09490948094811C1E
S1130EA0911CA11CB11C2C2FB501A401C70139DF71
S1130EB081E0DF91CF911F910F91FF90EF90BF9050
S1130EC0AF909F908F900895A0E2B0E0E9E6F7E03C
S1130ED098C25C01962E7A01F9018E010F5F1F4FB3
S1130EE0680180E2D8011D928A95E9F7D50113962D
S1130EF08C9080E090E0612C712C30E061E070E037
S1130F0083FC259183FE21918F01522E211103C070
S1130F1080E090E090C02E3511F4009751F1432FFA
S1130F2050E0481759073CF42D3559F12D3219F486
S1130F30772009F103C0772009F468C0452D469550
S1130F4046954695D601A40FB11D452D47708B01DA
S1130F5002C0000F111F4A95E2F7A8015C91452BCE
S1130F604C93651459F0561410F45394E7CF5A94E3
S1130F70E5CF31E004C07724739401C0712C01964D
S1130F80BFCF772019F08E8180628E83311103C028
S1130F908824839417C0F6019E012F5D3F4F808102
S1130FA0809581932E173F07D1F7F2CFE114F10416
S1130FB029F0D7018C93F70131967F019A94812C03
S1130FC09920E9F0C50161DC97FD17C0FC01FF27FA
S1130FD023E0F595E7952A95E1F7EC0DFD1D2081B9
S1130FE030E0AC014770552702C0359527954A95E6
S1130FF0E2F720FDDBCFB50187D1811089CFE11461
S1131000F10411F0D7011C92C80115C0422F469576
S113101046954695D601A40FB11D422F47708B010A
S113102002C0000F111F4A95E2F7A8015C91452BFD
S11310304C93622EA4CFA096EFE0FFC1A0E0B0E0F5
S1131040E3E2F8E0DEC16C01EB015A01FC01178216
S11310501682512CF601E380FE01E3FC8591E3FE48
S11310608191182FEF01882309F4E0C090E0E7D0C4
S1131070892B19F0C60188DEEDCF153241F4FE014B
S1131080E3FC1591E3FE1191EF01153271F4C601F1
S1131090FCDB97FDC9C0412F50E09C013327241786
S11310A03507C1F2B60130D1C1C01A3239F4E3FCBC
S11310B01591E3FE1191EF0101E001C000E0F12C74
S11310C020ED210F2A3078F402606F2D70E080E06B
S11310D090E040E232DEF62EFE01E3FC1591E3FEE1
S11310E01191EF01EDCF01FF03C0F11003C09EC0C9
S11310F0FF24FA94183619F01C3651F010C0FE0182
S1131100E3FC1591E3FE1191EF01183641F40860F8
S11311100460FE01E3FC1591E3FE1191EF0111233C
S113112009F484C0612F70E088E690E090D0892BA8
S113113009F47CC000FD07C0F50180809180C501E1
S113114002965C0102C0812C912C1E3649F4F601F2
S11311504681578160E070E0202FC401E2DD7ACF40
S11311601336A1F401FD02C0FF24F394C6018DDB04
S113117097FD5AC08114910429F0F4018083C401BD
S113118001964C01FA94F110F1CF4AC01B3551F489
S11311909E01A4016F2DC60197DEEC01892B09F095
S11311A03FC039C0C601F0DD97FD3EC01F3649F18E
S11311B028F4143621F1193639F125C0133771F0AA
S11311C01537E9F020C08114910429F0F4016082FC
S11311D0C40101964C01FA94FF2059F0C60155DB75
S11311E03C0197FD06C02BD0892B69F3B601C301DE
S11311F08BD081149104A1F0F401108211C000621B
S113120003C0006101C00064202FA4016F2DC6013A
S1131210D1DD811105C0F6018381807329F406C0F4
S113122000FD18CF539416CF552019F0852D90E06A
S113123002C08FEF9FEFCDB7DEB7EFE0FEC0911194
S1131240DAC0803219F089508550D0F70895FC0136
S11312500590061621F00020D9F7C00108953197B2
S1131260CF010895FC010590615070400110D8F73A
S1131270809590958E0F9F1F0895FC0161507040DA
S113128001900110D8F7809590958E0F9F1F0895B7
S11312900F931F93CF93DF93FB01238121FD03C0A1
S11312A08FEF9FEF2CC022FF16C046815781248107
S11312B035814217530744F4A081B1819D012F5F0A
S11312C03F4F318320838C93268137812F5F3F4F9B
S11312D03783268314C08B01EC01FB010084F18564
S11312E0E02D0995892BE1F6D80116968D919C91F4
S11312F01797019617969C938E931697CE01DF91BC
S1131300CF911F910F910895FB01238120FF12C0FB
S113131026FD10C08F3F3FEF930761F082832F7D3E
S11313202064238326813781215031093783268322
S1131330992708958FEF9FEF0895FA01AA2728307F
S113134051F1203181F1E8946F936E7F6E5F7F4F8E
S11313508F4F9F4FAF4FB1E03ED0B4E03CD0670F0A
S1131360781F891F9A1FA11D680F791F8A1F911D5D
S1131370A11D6A0F711D811D911DA11D20D009F4AD
S113138068943F912AE0269F11243019305D3193EF
S1131390DEF6CF010895462F4770405D4193B3E0D8
S11313A00FD0C9F7F6CF462F4F70405D4A3318F07F
S11313B0495D31FD4052419302D0A9F7EACFB4E030
S11313C0A6959795879577956795BA95C9F70097E8
S11313D06105710508959B01AC010A2E0694579589
S11313E0479537952795BA95C9F7620F731F841FE0
S11313F0951FA01D08959927882708952F923F923D
S11314004F925F926F927F928F929F92AF92BF9210
S1131410CF92DF92EF92FF920F931F93CF93DF93BC
S1131420CDB7DEB7CA1BDB0B0FB6F894DEBF0FBE19
S1131430CDBF09942A88398848885F846E847D8466
S11314408C849B84AA84B984C884DF80EE80FD8068
S11314500C811B81AA81B981CE0FD11D0FB6F894DE
S1111460DEBF0FBECDBFED010895F894FFCF9F
S113146E5A87969B006496A6AC0000000300000009
S113147E005B036A03000025630065736574746979
S113148E6E67206D6F746F72732E0A0D005B2533B9
S113149E753B2533753B2533753B2533753B5D0A0B
S11314AE0D00252A63253375252A63253375252AD0
S11314BE63253375252A63253375252A63252A6307
S10514CE000018
S9030000FC
